{
  "_format": "hh-sol-artifact-1",
  "contractName": "TransactionHandler",
  "sourceName": "contracts/TransactionHandler.sol",
  "abi": [
    {
      "anonymous": false,
      "inputs": [
        {
          "indexed": false,
          "internalType": "uint256",
          "name": "propertyId",
          "type": "uint256"
        },
        {
          "indexed": false,
          "internalType": "uint256",
          "name": "totalIncome",
          "type": "uint256"
        }
      ],
      "name": "RentalIncomeDistributed",
      "type": "event"
    },
    {
      "inputs": [
        {
          "internalType": "uint256",
          "name": "propertyId",
          "type": "uint256"
        }
      ],
      "name": "distributeRentalIncome",
      "outputs": [],
      "stateMutability": "payable",
      "type": "function"
    },
    {
      "inputs": [
        {
          "internalType": "uint256",
          "name": "propertyId",
          "type": "uint256"
        }
      ],
      "name": "getOwners",
      "outputs": [
        {
          "internalType": "address[]",
          "name": "",
          "type": "address[]"
        }
      ],
      "stateMutability": "view",
      "type": "function"
    },
    {
      "inputs": [
        {
          "internalType": "uint256",
          "name": "",
          "type": "uint256"
        },
        {
          "internalType": "uint256",
          "name": "",
          "type": "uint256"
        }
      ],
      "name": "owners",
      "outputs": [
        {
          "internalType": "address",
          "name": "",
          "type": "address"
        }
      ],
      "stateMutability": "view",
      "type": "function"
    },
    {
      "inputs": [
        {
          "internalType": "uint256",
          "name": "propertyId",
          "type": "uint256"
        },
        {
          "internalType": "address",
          "name": "owner",
          "type": "address"
        },
        {
          "internalType": "uint256",
          "name": "percentage",
          "type": "uint256"
        }
      ],
      "name": "registerOwner",
      "outputs": [],
      "stateMutability": "nonpayable",
      "type": "function"
    },
    {
      "inputs": [
        {
          "internalType": "uint256",
          "name": "",
          "type": "uint256"
        }
      ],
      "name": "rentalIncome",
      "outputs": [
        {
          "internalType": "uint256",
          "name": "",
          "type": "uint256"
        }
      ],
      "stateMutability": "view",
      "type": "function"
    },
    {
      "inputs": [
        {
          "internalType": "uint256",
          "name": "",
          "type": "uint256"
        },
        {
          "internalType": "address",
          "name": "",
          "type": "address"
        }
      ],
      "name": "sharePercentages",
      "outputs": [
        {
          "internalType": "uint256",
          "name": "",
          "type": "uint256"
        }
      ],
      "stateMutability": "view",
      "type": "function"
    }
  ],
  "bytecode": "0x608060405234801561001057600080fd5b50610a9e806100206000396000f3fe6080604052600436106100555760003560e01c80632a2c8d901461005a57806333764f53146100975780636109e389146100d4578063db43919b14610111578063ee4525d51461012d578063f61b82a11461016a575b600080fd5b34801561006657600080fd5b50610081600480360381019061007c9190610612565b610193565b60405161008e9190610661565b60405180910390f35b3480156100a357600080fd5b506100be60048036038101906100b9919061067c565b6101b8565b6040516100cb91906106cb565b60405180910390f35b3480156100e057600080fd5b506100fb60048036038101906100f691906106e6565b610206565b6040516101089190610661565b60405180910390f35b61012b600480360381019061012691906106e6565b61021e565b005b34801561013957600080fd5b50610154600480360381019061014f91906106e6565b61040a565b60405161016191906107d1565b60405180910390f35b34801561017657600080fd5b50610191600480360381019061018c91906107f3565b6104ab565b005b6002602052816000526040600020602052806000526040600020600091509150505481565b600160205281600052604060002081815481106101d457600080fd5b906000526020600020016000915091509054906101000a900473ffffffffffffffffffffffffffffffffffffffff1681565b60006020528060005260406000206000915090505481565b600034905060008111610266576040517f08c379a000000000000000000000000000000000000000000000000000000000815260040161025d906108a3565b60405180910390fd5b80600080848152602001908152602001600020600082825461028891906108f2565b9250508190555060005b60016000848152602001908152602001600020805490508110156103cc5760006001600085815260200190815260200160002082815481106102d7576102d6610926565b5b9060005260206000200160009054906101000a900473ffffffffffffffffffffffffffffffffffffffff169050600060646002600087815260200190815260200160002060008473ffffffffffffffffffffffffffffffffffffffff1673ffffffffffffffffffffffffffffffffffffffff16815260200190815260200160002054856103649190610955565b61036e91906109c6565b90508173ffffffffffffffffffffffffffffffffffffffff166108fc829081150290604051600060405180830381858888f193505050501580156103b6573d6000803e3d6000fd5b50505080806103c4906109f7565b915050610292565b507f05f22a7e13278e3ae8f7a891f9212866f009e17528e63bb103ffa4a2244e0a5982826040516103fe929190610a3f565b60405180910390a15050565b60606001600083815260200190815260200160002080548060200260200160405190810160405280929190818152602001828054801561049f57602002820191906000526020600020905b8160009054906101000a900473ffffffffffffffffffffffffffffffffffffffff1673ffffffffffffffffffffffffffffffffffffffff1681526020019060010190808311610455575b50505050509050919050565b60016000848152602001908152602001600020829080600181540180825580915050600190039060005260206000200160009091909190916101000a81548173ffffffffffffffffffffffffffffffffffffffff021916908373ffffffffffffffffffffffffffffffffffffffff160217905550806002600085815260200190815260200160002060008473ffffffffffffffffffffffffffffffffffffffff1673ffffffffffffffffffffffffffffffffffffffff16815260200190815260200160002081905550505050565b600080fd5b6000819050919050565b6105918161057e565b811461059c57600080fd5b50565b6000813590506105ae81610588565b92915050565b600073ffffffffffffffffffffffffffffffffffffffff82169050919050565b60006105df826105b4565b9050919050565b6105ef816105d4565b81146105fa57600080fd5b50565b60008135905061060c816105e6565b92915050565b6000806040838503121561062957610628610579565b5b60006106378582860161059f565b9250506020610648858286016105fd565b9150509250929050565b61065b8161057e565b82525050565b60006020820190506106766000830184610652565b92915050565b6000806040838503121561069357610692610579565b5b60006106a18582860161059f565b92505060206106b28582860161059f565b9150509250929050565b6106c5816105d4565b82525050565b60006020820190506106e060008301846106bc565b92915050565b6000602082840312156106fc576106fb610579565b5b600061070a8482850161059f565b91505092915050565b600081519050919050565b600082825260208201905092915050565b6000819050602082019050919050565b610748816105d4565b82525050565b600061075a838361073f565b60208301905092915050565b6000602082019050919050565b600061077e82610713565b610788818561071e565b93506107938361072f565b8060005b838110156107c45781516107ab888261074e565b97506107b683610766565b925050600181019050610797565b5085935050505092915050565b600060208201905081810360008301526107eb8184610773565b905092915050565b60008060006060848603121561080c5761080b610579565b5b600061081a8682870161059f565b935050602061082b868287016105fd565b925050604061083c8682870161059f565b9150509250925092565b600082825260208201905092915050565b7f4e6f2072656e74616c20696e636f6d6520746f20646973747269627574650000600082015250565b600061088d601e83610846565b915061089882610857565b602082019050919050565b600060208201905081810360008301526108bc81610880565b9050919050565b7f4e487b7100000000000000000000000000000000000000000000000000000000600052601160045260246000fd5b60006108fd8261057e565b91506109088361057e565b92508282019050808211156109205761091f6108c3565b5b92915050565b7f4e487b7100000000000000000000000000000000000000000000000000000000600052603260045260246000fd5b60006109608261057e565b915061096b8361057e565b92508282026109798161057e565b915082820484148315176109905761098f6108c3565b5b5092915050565b7f4e487b7100000000000000000000000000000000000000000000000000000000600052601260045260246000fd5b60006109d18261057e565b91506109dc8361057e565b9250826109ec576109eb610997565b5b828204905092915050565b6000610a028261057e565b91507fffffffffffffffffffffffffffffffffffffffffffffffffffffffffffffffff8203610a3457610a336108c3565b5b600182019050919050565b6000604082019050610a546000830185610652565b610a616020830184610652565b939250505056fea26469706673582212200c29d6e48593bb8385ab50a7171c8421c4e3fba3e8f03b5b0bc01583cca3273464736f6c63430008130033",
  "linkReferences": {},
  "deployedLinkReferences": {}
}