{
  "_format": "hh-sol-artifact-1",
  "contractName": "FractionalOwnership",
  "sourceName": "contracts/FractionalOwnership.sol",
  "abi": [
    {
      "anonymous": false,
      "inputs": [
        {
          "indexed": true,
          "internalType": "address",
          "name": "previousOwner",
          "type": "address"
        },
        {
          "indexed": true,
          "internalType": "address",
          "name": "newOwner",
          "type": "address"
        }
      ],
      "name": "OwnershipTransferred",
      "type": "event"
    },
    {
      "anonymous": false,
      "inputs": [
        {
          "indexed": false,
          "internalType": "uint256",
          "name": "propertyId",
          "type": "uint256"
        },
        {
          "indexed": false,
          "internalType": "address",
          "name": "to",
          "type": "address"
        },
        {
          "indexed": false,
          "internalType": "uint256",
          "name": "percentage",
          "type": "uint256"
        }
      ],
      "name": "SharesIssued",
      "type": "event"
    },
    {
      "anonymous": false,
      "inputs": [
        {
          "indexed": false,
          "internalType": "uint256",
          "name": "propertyId",
          "type": "uint256"
        },
        {
          "indexed": false,
          "internalType": "address",
          "name": "voter",
          "type": "address"
        },
        {
          "indexed": false,
          "internalType": "string",
          "name": "decision",
          "type": "string"
        }
      ],
      "name": "Voted",
      "type": "event"
    },
    {
      "inputs": [
        {
          "internalType": "uint256",
          "name": "propertyId",
          "type": "uint256"
        }
      ],
      "name": "getPropertyShares",
      "outputs": [
        {
          "components": [
            {
              "internalType": "address",
              "name": "owner",
              "type": "address"
            },
            {
              "internalType": "uint256",
              "name": "percentage",
              "type": "uint256"
            }
          ],
          "internalType": "struct FractionalOwnership.Share[]",
          "name": "",
          "type": "tuple[]"
        }
      ],
      "stateMutability": "view",
      "type": "function"
    },
    {
      "inputs": [
        {
          "internalType": "uint256",
          "name": "",
          "type": "uint256"
        },
        {
          "internalType": "address",
          "name": "",
          "type": "address"
        }
      ],
      "name": "governanceVotes",
      "outputs": [
        {
          "internalType": "bool",
          "name": "",
          "type": "bool"
        }
      ],
      "stateMutability": "view",
      "type": "function"
    },
    {
      "inputs": [
        {
          "internalType": "uint256",
          "name": "propertyId",
          "type": "uint256"
        },
        {
          "internalType": "address",
          "name": "to",
          "type": "address"
        },
        {
          "internalType": "uint256",
          "name": "percentage",
          "type": "uint256"
        }
      ],
      "name": "issueShare",
      "outputs": [],
      "stateMutability": "nonpayable",
      "type": "function"
    },
    {
      "inputs": [],
      "name": "owner",
      "outputs": [
        {
          "internalType": "address",
          "name": "",
          "type": "address"
        }
      ],
      "stateMutability": "view",
      "type": "function"
    },
    {
      "inputs": [
        {
          "internalType": "uint256",
          "name": "propertyId",
          "type": "uint256"
        },
        {
          "internalType": "address",
          "name": "user",
          "type": "address"
        }
      ],
      "name": "ownsShare",
      "outputs": [
        {
          "internalType": "bool",
          "name": "",
          "type": "bool"
        }
      ],
      "stateMutability": "view",
      "type": "function"
    },
    {
      "inputs": [
        {
          "internalType": "uint256",
          "name": "",
          "type": "uint256"
        },
        {
          "internalType": "uint256",
          "name": "",
          "type": "uint256"
        }
      ],
      "name": "propertyShares",
      "outputs": [
        {
          "internalType": "address",
          "name": "owner",
          "type": "address"
        },
        {
          "internalType": "uint256",
          "name": "percentage",
          "type": "uint256"
        }
      ],
      "stateMutability": "view",
      "type": "function"
    },
    {
      "inputs": [],
      "name": "renounceOwnership",
      "outputs": [],
      "stateMutability": "nonpayable",
      "type": "function"
    },
    {
      "inputs": [
        {
          "internalType": "address",
          "name": "newOwner",
          "type": "address"
        }
      ],
      "name": "transferOwnership",
      "outputs": [],
      "stateMutability": "nonpayable",
      "type": "function"
    },
    {
      "inputs": [
        {
          "internalType": "uint256",
          "name": "propertyId",
          "type": "uint256"
        },
        {
          "internalType": "string",
          "name": "decision",
          "type": "string"
        }
      ],
      "name": "voteOnDecision",
      "outputs": [],
      "stateMutability": "nonpayable",
      "type": "function"
    }
  ],
  "bytecode": "0x608060405234801561001057600080fd5b5061002d61002261003260201b60201c565b61003a60201b60201c565b6100fe565b600033905090565b60008060009054906101000a900473ffffffffffffffffffffffffffffffffffffffff169050816000806101000a81548173ffffffffffffffffffffffffffffffffffffffff021916908373ffffffffffffffffffffffffffffffffffffffff1602179055508173ffffffffffffffffffffffffffffffffffffffff168173ffffffffffffffffffffffffffffffffffffffff167f8be0079c531659141344cd1fd0a4f28419497f9722a3daafe3b4186f6b6457e060405160405180910390a35050565b6112398061010d6000396000f3fe608060405234801561001057600080fd5b50600436106100935760003560e01c8063aa1cd5ef11610066578063aa1cd5ef146100f8578063ab3158e414610128578063bf03fb4a14610158578063efcc1fb614610189578063f2fde38b146101b957610093565b80631006050f14610098578063715018a6146100b45780638da5cb5b146100be5780639372192f146100dc575b600080fd5b6100b260048036038101906100ad9190610a8a565b6101d5565b005b6100bc610364565b005b6100c6610378565b6040516100d39190610b27565b60405180910390f35b6100f660048036038101906100f19190610b6e565b6103a1565b005b610112600480360381019061010d9190610bc1565b6104f3565b60405161011f9190610c1c565b60405180910390f35b610142600480360381019061013d9190610bc1565b6105cb565b60405161014f9190610c1c565b60405180910390f35b610172600480360381019061016d9190610c37565b6105fa565b604051610180929190610c86565b60405180910390f35b6101a3600480360381019061019e9190610caf565b61065b565b6040516101b09190610dd8565b60405180910390f35b6101d360048036038101906101ce9190610dfa565b61072d565b005b6101df82336104f3565b61021e576040517f08c379a000000000000000000000000000000000000000000000000000000000815260040161021590610e84565b60405180910390fd5b6002600083815260200190815260200160002060003373ffffffffffffffffffffffffffffffffffffffff1673ffffffffffffffffffffffffffffffffffffffff16815260200190815260200160002060009054906101000a900460ff16156102bc576040517f08c379a00000000000000000000000000000000000000000000000000000000081526004016102b390610ef0565b60405180910390fd5b60016002600084815260200190815260200160002060003373ffffffffffffffffffffffffffffffffffffffff1673ffffffffffffffffffffffffffffffffffffffff16815260200190815260200160002060006101000a81548160ff0219169083151502179055507f909b43dcc56d91024768bbc5c8d56441234580b2fd6176844960cbc7218cc0b582338360405161035893929190610f7e565b60405180910390a15050565b61036c6107b0565b610376600061082e565b565b60008060009054906101000a900473ffffffffffffffffffffffffffffffffffffffff16905090565b6103a96107b0565b6000811180156103ba575060648111155b6103f9576040517f08c379a00000000000000000000000000000000000000000000000000000000081526004016103f090611008565b60405180910390fd5b6001600084815260200190815260200160002060405180604001604052808473ffffffffffffffffffffffffffffffffffffffff16815260200183815250908060018154018082558091505060019003906000526020600020906002020160009091909190915060008201518160000160006101000a81548173ffffffffffffffffffffffffffffffffffffffff021916908373ffffffffffffffffffffffffffffffffffffffff1602179055506020820151816001015550507f0d04a49b56b2de651670a9bae041e977e478f3d0f517e2b5b7a0374b6c49e62d8383836040516104e693929190611028565b60405180910390a1505050565b600080600090505b60016000858152602001908152602001600020805490508110156105bf578273ffffffffffffffffffffffffffffffffffffffff166001600086815260200190815260200160002082815481106105555761055461105f565b5b906000526020600020906002020160000160009054906101000a900473ffffffffffffffffffffffffffffffffffffffff1673ffffffffffffffffffffffffffffffffffffffff16036105ac5760019150506105c5565b80806105b7906110bd565b9150506104fb565b50600090505b92915050565b60026020528160005260406000206020528060005260406000206000915091509054906101000a900460ff1681565b6001602052816000526040600020818154811061061657600080fd5b9060005260206000209060020201600091509150508060000160009054906101000a900473ffffffffffffffffffffffffffffffffffffffff16908060010154905082565b606060016000838152602001908152602001600020805480602002602001604051908101604052809291908181526020016000905b8282101561072257838290600052602060002090600202016040518060400160405290816000820160009054906101000a900473ffffffffffffffffffffffffffffffffffffffff1673ffffffffffffffffffffffffffffffffffffffff1673ffffffffffffffffffffffffffffffffffffffff16815260200160018201548152505081526020019060010190610690565b505050509050919050565b6107356107b0565b600073ffffffffffffffffffffffffffffffffffffffff168173ffffffffffffffffffffffffffffffffffffffff16036107a4576040517f08c379a000000000000000000000000000000000000000000000000000000000815260040161079b90611177565b60405180910390fd5b6107ad8161082e565b50565b6107b86108f2565b73ffffffffffffffffffffffffffffffffffffffff166107d6610378565b73ffffffffffffffffffffffffffffffffffffffff161461082c576040517f08c379a0000000000000000000000000000000000000000000000000000000008152600401610823906111e3565b60405180910390fd5b565b60008060009054906101000a900473ffffffffffffffffffffffffffffffffffffffff169050816000806101000a81548173ffffffffffffffffffffffffffffffffffffffff021916908373ffffffffffffffffffffffffffffffffffffffff1602179055508173ffffffffffffffffffffffffffffffffffffffff168173ffffffffffffffffffffffffffffffffffffffff167f8be0079c531659141344cd1fd0a4f28419497f9722a3daafe3b4186f6b6457e060405160405180910390a35050565b600033905090565b6000604051905090565b600080fd5b600080fd5b6000819050919050565b6109218161090e565b811461092c57600080fd5b50565b60008135905061093e81610918565b92915050565b600080fd5b600080fd5b6000601f19601f8301169050919050565b7f4e487b7100000000000000000000000000000000000000000000000000000000600052604160045260246000fd5b6109978261094e565b810181811067ffffffffffffffff821117156109b6576109b561095f565b5b80604052505050565b60006109c96108fa565b90506109d5828261098e565b919050565b600067ffffffffffffffff8211156109f5576109f461095f565b5b6109fe8261094e565b9050602081019050919050565b82818337600083830152505050565b6000610a2d610a28846109da565b6109bf565b905082815260208101848484011115610a4957610a48610949565b5b610a54848285610a0b565b509392505050565b600082601f830112610a7157610a70610944565b5b8135610a81848260208601610a1a565b91505092915050565b60008060408385031215610aa157610aa0610904565b5b6000610aaf8582860161092f565b925050602083013567ffffffffffffffff811115610ad057610acf610909565b5b610adc85828601610a5c565b9150509250929050565b600073ffffffffffffffffffffffffffffffffffffffff82169050919050565b6000610b1182610ae6565b9050919050565b610b2181610b06565b82525050565b6000602082019050610b3c6000830184610b18565b92915050565b610b4b81610b06565b8114610b5657600080fd5b50565b600081359050610b6881610b42565b92915050565b600080600060608486031215610b8757610b86610904565b5b6000610b958682870161092f565b9350506020610ba686828701610b59565b9250506040610bb78682870161092f565b9150509250925092565b60008060408385031215610bd857610bd7610904565b5b6000610be68582860161092f565b9250506020610bf785828601610b59565b9150509250929050565b60008115159050919050565b610c1681610c01565b82525050565b6000602082019050610c316000830184610c0d565b92915050565b60008060408385031215610c4e57610c4d610904565b5b6000610c5c8582860161092f565b9250506020610c6d8582860161092f565b9150509250929050565b610c808161090e565b82525050565b6000604082019050610c9b6000830185610b18565b610ca86020830184610c77565b9392505050565b600060208284031215610cc557610cc4610904565b5b6000610cd38482850161092f565b91505092915050565b600081519050919050565b600082825260208201905092915050565b6000819050602082019050919050565b610d1181610b06565b82525050565b610d208161090e565b82525050565b604082016000820151610d3c6000850182610d08565b506020820151610d4f6020850182610d17565b50505050565b6000610d618383610d26565b60408301905092915050565b6000602082019050919050565b6000610d8582610cdc565b610d8f8185610ce7565b9350610d9a83610cf8565b8060005b83811015610dcb578151610db28882610d55565b9750610dbd83610d6d565b925050600181019050610d9e565b5085935050505092915050565b60006020820190508181036000830152610df28184610d7a565b905092915050565b600060208284031215610e1057610e0f610904565b5b6000610e1e84828501610b59565b91505092915050565b600082825260208201905092915050565b7f596f75206d757374206f776e206120736861726520746f20766f746500000000600082015250565b6000610e6e601c83610e27565b9150610e7982610e38565b602082019050919050565b60006020820190508181036000830152610e9d81610e61565b9050919050565b7f596f75206861766520616c726561647920766f74656400000000000000000000600082015250565b6000610eda601683610e27565b9150610ee582610ea4565b602082019050919050565b60006020820190508181036000830152610f0981610ecd565b9050919050565b600081519050919050565b60005b83811015610f39578082015181840152602081019050610f1e565b60008484015250505050565b6000610f5082610f10565b610f5a8185610e27565b9350610f6a818560208601610f1b565b610f738161094e565b840191505092915050565b6000606082019050610f936000830186610c77565b610fa06020830185610b18565b8181036040830152610fb28184610f45565b9050949350505050565b7f496e76616c69642070657263656e746167650000000000000000000000000000600082015250565b6000610ff2601283610e27565b9150610ffd82610fbc565b602082019050919050565b6000602082019050818103600083015261102181610fe5565b9050919050565b600060608201905061103d6000830186610c77565b61104a6020830185610b18565b6110576040830184610c77565b949350505050565b7f4e487b7100000000000000000000000000000000000000000000000000000000600052603260045260246000fd5b7f4e487b7100000000000000000000000000000000000000000000000000000000600052601160045260246000fd5b60006110c88261090e565b91507fffffffffffffffffffffffffffffffffffffffffffffffffffffffffffffffff82036110fa576110f961108e565b5b600182019050919050565b7f4f776e61626c653a206e6577206f776e657220697320746865207a65726f206160008201527f6464726573730000000000000000000000000000000000000000000000000000602082015250565b6000611161602683610e27565b915061116c82611105565b604082019050919050565b6000602082019050818103600083015261119081611154565b9050919050565b7f4f776e61626c653a2063616c6c6572206973206e6f7420746865206f776e6572600082015250565b60006111cd602083610e27565b91506111d882611197565b602082019050919050565b600060208201905081810360008301526111fc816111c0565b905091905056fea2646970667358221220a2e5674d026ba7b5123ce1710ebe3f4ffd6319560d57c454d957c6ccb57944e364736f6c63430008130033",
  "linkReferences": {},
  "deployedLinkReferences": {}
}